:020000040800F2
:1000000050040020450100088515000887150008E8
:100010008B1500088F1500089315000800000000DC
:10002000000000000000000000000000971500081C
:1000300099150008000000009B1500089D15000898
:100040005F0100085F0100085F0100085F01000810
:100050005F0100085F0100085F0100085F01000800
:100060005F0100085F0100085F0100085F010008F0
:100070005F0100085F0100085F0100085F010008E0
:100080005F0100085F0100085F0100085F010008D0
:100090005F0100085F0100085F0100085F010008C0
:1000A0005F0100085F0100085F0100085F010008B0
:1000B0005F0100085F0100085F0100085F010008A0
:1000C0005F0100085F0100085F0100085F01000890
:1000D0005F0100085F0100085F0100085F01000880
:1000E0005F0100085F0100085F0100085F01000870
:1000F0005F0100085F0100085F0100085F01000860
:100100005F0100085F0100085F0100085F0100084F
:100110005F0100085F0100085F0100085F0100083F
:100120005F0100085F0100085F0100085F0100082F
:10013000DFF80CD001F052FE00480047C112000861
:10014000500400200648804706480047FEE7FEE7C7
:10015000FEE7FEE7FEE7FEE7FEE7FEE7FEE7FEE777
:1001600047020008310100080CB500200190009002
:100170006C48006840F480306A49086000BF6948F4
:10018000006800F4003000900198401C0190009835
:1001900018B90198B0F5A06FF1D16248006800F479
:1001A000003010B10120009001E000200090009884
:1001B000012843D15C48006840F010005A490860AB
:1001C0000846006820F0030008600846006840F018
:1001D0000200086053484068524948600846406839
:1001E00048600846406840F48060486008464068BF
:1001F00020F47C1048600846406840F4E8104860ED
:100200000846006840F08070086000BF45480068FC
:1002100000F000700028F9D04248406820F0030048
:10022000404948600846406840F00200486000BF0E
:100230003C48406800F00C000828F9D10CBD10B50E
:10024000FFF792FF10BD10B53648006840F001007E
:1002500034490860084640683449084031494860DC
:1002600008460068324908402E4908600846006880
:1002700020F4802008600846406820F4FE004860B2
:100280004FF41F008860FFF7DAFF4FF00060294944
:10029000086010BD10B5002100200022214B5B68D2
:1002A00003F00C0121B1042906D0082928D107E068
:1002B000214B224C236027E01F4B204C236023E07E
:1002C000184B5B6803F47010164B5B6803F48032C4
:1002D000022303EB904022B9194B4343174C236090
:1002E0000DE0104B5B6803F4003323B1144B434320
:1002F000124C236003E0104B4343104C236003E097
:100300000D4B0E4C236000BF00BF064B5B68C3F370
:1003100003130C4CE15C094B1B68CB40074C23607A
:1003200010BD000000100240002002400000FFF855
:10033000FFFFF6FE08ED00E000127A00000000204A
:1003400000093D000400002010B50446CC4884425A
:1003500008D10121042000F02DFB0021042000F031
:1003600029FB46E0C748844208D10121082000F05B
:1003700021FB0021082000F01DFB3AE0C248844226
:1003800008D10121102000F015FB0021102000F001
:1003900011FB2EE0BD48844208D10121202000F04D
:1003A00009FB0021202000F005FB22E0B848844230
:1003B00008D10121402000F0FDFA0021402000F08A
:1003C000F9FA16E0B348844208D10121802000F0F8
:1003D000F1FA0021802000F0EDFA0AE0AE488442F4
:1003E00007D10121801500F0E5FA0021A01500F0E9
:1003F000E1FA10BD10B50121084600F0DBFA00213A
:10040000012000F0D7FA10BD2DE9F0410246002589
:100410000026002000230024002791F803C00CF0E0
:100420000F0591F803C00CF0100CBCF1000F03D0C5
:1004300091F802C04CEA050591F800C0BCF1000F2C
:1004400031D0146800202BE04FF0010C0CFA00F3BF
:10045000B1F800C00CEA03069E4220D183004FF0A1
:100460000F0C0CFA03F7BC4305FA03FC4CEA040436
:1004700091F803C0BCF1280F06D14FF0010C0CFA23
:1004800000FCC2F814C00AE091F803C0BCF1480FA8
:1004900005D14FF0010C0CFA00FCC2F810C0401C52
:1004A0000828D1D31460B1F800C0BCF1FF0F34DDCF
:1004B000546800202EE000F1080C4FF0010808FA03
:1004C0000CF3B1F800C00CEA03069E4221D1830070
:1004D0004FF00F0C0CFA03F7BC4305FA03FC4CEA8F
:1004E000040491F803C0BCF1280F05D100F1080CF9
:1004F00008FA0CF8C2F8148091F803C0BCF1480F58
:1005000007D100F1080C4FF0010808FA0CF8C2F806
:100510001080401C0828CED35460BDE8F0814FF60F
:10052000FF710180022181700421C1707047024671
:10053000002093680B400BB1012000E000207047C1
:100540000146886880B2704702460020D3680B409D
:100550000BB1012000E0002070470146C86880B25E
:10056000704701617047416170470AB1016100E065
:1005700041617047C16070474FF480320A43826125
:100580008161826182698269704702460020434B23
:1005900018684FF68073184040EA021008433F4B3A
:1005A000186070473E49C8617047F0B50A4600239D
:1005B00000240021002500F00046B6F1004F02D1D2
:1005C000364EF16901E0354E7168C0F3034583B2E0
:1005D00000F44016B6F5401F08D121F070612F4E8F
:1005E000766826F070662D4F7E6012E000F480166B
:1005F000B6F5801F06D1032606FA05F4A14341F0A3
:10060000706106E0460D360103FA06F6B14341F08B
:10061000706122B1460D360103FA06F6314300F04F
:100620000046B6F1004F02D11C4EF16101E01B4EB5
:100630007160F0BD30B500228B071C0F0F2303FA49
:1006400004F2164B08338C1053F824309343134CA8
:1006500008348D1044F8253023468C1053F824308C
:100660008C07240F00FA04F423430C4C08348D103B
:1006700044F8253030BD0A49DC310860704700007D
:1006800000080140000C014000100140001401402E
:1006900000180140001C0140002001400000014002
:1006A00000002042DF48006840F00100DD4908609A
:1006B00008464068DC490840DA4948600846006856
:1006C000DA490840D74908600846006820F48020CD
:1006D00008600846406820F4FE0048604FF41F00A0
:1006E00088607047CF49096821F48031CD4A116094
:1006F0001146096821F480211160B0F5803F03D0D4
:10070000B0F5802F0ED106E0C649096841F480316A
:10071000C44A116007E0C349096841F4A021C14AF5
:10072000116000E000BF00BF704710B50146002215
:10073000002300204A11012A02D1BA4C236806E0A6
:10074000022A02D1B74C236A01E0B64C636A01F079
:100750001F02012494401C400CB1012000E0002045
:1007600010BD38B5002000900024002500BF3120C6
:10077000FFF7DBFF05460098401C00900098B0F59D
:10078000A06F01D0002DF2D03120FFF7CEFF08B1CD
:10079000012400E00024204638BD01460020A14A83
:1007A000106820F0F80040EAC10010607047A049CE
:1007B00008607047024600209A4B586820F47C106D
:1007C00042EA01031843974B5860704798490866FE
:1007D000704701460020934A506820F00300084308
:1007E000506070478F48406800F00C007047014629
:1007F00000208C4A506820F0F00008435060704799
:1008000001460020874A506820F4E06008435060A9
:10081000704701460020834A506820F4605040EA47
:10082000C1005060704729B17E4A527A02437D4B25
:100830005A7204E07B4A527A82437A4B5A7270476A
:100840007B49D8310860704701460020754A5068DE
:1008500020F440400843506070470021714A203224
:100860001170704A82F82010012802D004280AD1A1
:1008700004E001216B4A2032117005E00521694A2C
:100880002032117000E000BF00BF70476949086066
:1008900070476449096A0143624A116270476549B9
:1008A00044390860704730B500210022002400233D
:1008B0005C4D6D6805F00C0121B1042905D00829B3
:1008C00023D105E05C4D056022E05B4D05601FE033
:1008D000544D6D6805F47012524D6D6805F4803406
:1008E000022505EB92421CB9544D554305600BE0BF
:1008F0004C4D6D6805F400351DB1504D55430560F4
:1009000002E04D4D5543056002E04B4D056000BFD0
:1009100000BF444D6D6805F0F0010909484D6B5C5E
:100920000568DD4045603F4D6D6805F4E061090AEA
:10093000434D6B5C4568DD4085603A4D6D6805F45C
:100940006051C90A3E4D6B5C4568DD40C560354D60
:100950006D6805F44041890B3A4D6B5CC568B5FB89
:10096000F3F5056130BD29B12E4A526902432D4B82
:100970005A6104E02B4A526982432A4B5A617047FC
:1009800029B1284A92690243264B9A6104E0254A1C
:1009900092698243234B9A61704729B1214AD269F7
:1009A0000243204BDA6104E01E4AD26982431D4BA8
:1009B000DA61704729B11B4AD2680243194BDA60E9
:1009C00004E0184AD2688243164BDA60704729B1B6
:1009D000144A12690243134B1A6104E0114A126966
:1009E0008243104B1A6170471249403908607047C2
:1009F0000F49C86470470B49C87170470948406A7D
:100A000040F0807007494862704701460020054A5F
:100A100092680A400AB1012000E0002070470149B5
:100A200088727047001002400000FFF8FFFFF6FEDA
:100A3000000042428004424200127A0000093D0058
:100A4000140000202400002010B50446BE48844253
:100A500008D101218014FFF7ADFF0021A014FFF79A
:100A6000A9FF16E0B948844208D101210014FFF71C
:100A7000AEFF00212014FFF7AAFF0AE0B448844229
:100A800007D10121C013FFF7A2FF0021E013FFF7F8
:100A90009EFF10BD10B50022028802F441520B885F
:100AA0004C8823438C882343CC8823430C892343DD
:100AB0004C8923438C892343CC8923431A430280E6
:100AC000838B4FF2FF74234083830B8A038210BD14
:100AD0002DE9F04F85B005460C464FF0000902277E
:100AE0004FF000084FF0010B0026B246A88B4FF2E2
:100AF00040010840A88302202884B5F81C90A06813
:100B0000022801D100BF38E0A08810B94FF0010BD6
:100B100001E04FF0020B8D48854200D100E000BF9C
:100B20006846FFF7C0FEDDF800A0E088B0F5007F62
:100B30000AD14FEA1A2000EB80004000A168B0FB08
:100B4000F1F0401D86B20BE04FEA4B10BAFBF0F01B
:100B500000EB80004000A168B0FBF1F0401D86B2C0
:100B60000A20B6FBF0F606F00108A6EB0800C0F379
:100B70004F074FF6FF7000EA0828022F01DBFF2F16
:100B800002DD02274FF00008E08840EA0800384301
:100B90002884A088A18908436188084321880843E4
:100BA00040F4006040EA0909A5F81C9005B0BDE8D2
:100BB000F08F0021018041808180C18001814181CD
:100BC0008181C1810721018270470021018041801C
:100BD0008180C1800221816000218181704721B123
:100BE000028842F04002028004E002884FF6BF73A0
:100BF0001A400280704721B1828B42F48062828366
:100C000004E0828B4FF6FF331A408283704730B581
:100C1000002400230C110125A540ABB21AB1858830
:100C20001D43858002E085889D43858030BD1AB1D3
:100C300083880B43838002E083888B4383807047E3
:100C4000818170470146888970474FF6FF62914263
:100C500004D0028842F48072028004E002884FF6D9
:100C6000FF631A400280704721B1828842F004027B
:100C7000828004E082884FF6FB731A4082807047BE
:100C800002884FF2FF731A40028002880A430280F2
:100C90007047018841F480510180704721B102887A
:100CA00042F40052028004E002884DF6FF731A40BD
:100CB0000280704702460020012901D0108B00E01D
:100CC000908A70470146088A7047B1F5804F04D179
:100CD000028842F48042028004E002884BF6FF73EF
:100CE0001A40028070470246002013890B400BB166
:100CF000012000E000207047CA4302817047F0B530
:100D00000246002000240023002501F00F070126E1
:100D1000BE40B4B20B1101269E40B3B2968806EADB
:100D200003051689264016B10DB1012000E0002010
:100D3000F0BD10B5002201F00F040123A3409AB2C8
:100D4000D343038110BD0000003001400038004053
:100D5000003C004010B50446FB48844209D1012103
:100D60008803FFF727FE00214FF48040FFF722FEA3
:100D700032E0F648844209D101214804FFF727FEFA
:100D800000214FF40030FFF722FE25E0F0488442B6
:100D900009D101218804FFF71AFE00214FF48020B9
:100DA000FFF715FE18E0EB48844209D10121C80481
:100DB000FFF70DFE00214FF40020FFF708FE0BE0C7
:100DC000E548844208D101210805FFF700FE002113
:100DD0004FF48010FFF7FBFD10BD2DE9F04786B002
:100DE00005460E460024A24600BFA1460027B08952
:100DF00000B100BF2F462C8A4CF6FF700440F088EB
:100E000004432C82AC894EF6F3100440B08831893B
:100E10000843718908430443AC81AC8A4FF6FF4014
:100E20000440B0890443AC8201A8FFF73CFDC648EA
:100E3000874202D1DDF810A001E0DDF80CA0A889FE
:100E400000F4004040B10AEBCA0000EB0A10316820
:100E50004900B0FBF1F807E00AEBCA0000EB0A100A
:100E600031688900B0FBF1F86420B8FBF0F00401B0
:100E70002009642101FB1089A88900F4004040B1D9
:100E8000322000EBC900B0FBF1F000F00700044392
:100E900008E0322000EB09106421B0FBF1F000F013
:100EA0000F0004432C8106B0BDE8F0874FF41651C3
:100EB000016000218180C18001810C2141810021DC
:100EC0008181704710B502460020108A4FF2FF035F
:100ED00018400B884C8823438C882343CC882343B9
:100EE0001843108210BD0021018041808180C180A3
:100EF000704721B1828942F40052828104E08289E4
:100F00004DF6FF731A4082817047F0B50346002406
:100F100000260025002040F66A17B94200D100BF24
:100F20001846C1F3421401F01F06012707FA06F51F
:100F3000012C01D10C3004E0022C01D1103000E072
:100F400014301AB107682F43076002E00768AF4307
:100F50000760F0BD1AB1838A0B43838202E0838A63
:100F60008B4383827047028A4FF6F0731A400282E5
:100F7000028A0A430282704782894FF2FF731A4045
:100F8000828182890A438281704721B1828942F03D
:100F90000202828104E082894FF6FD731A40828149
:100FA0007047028A4FF6DF731A400282028A0A43B0
:100FB0000282704721B1028A42F48042028204E038
:100FC000028A4BF6FF731A4002827047C1F308028F
:100FD0008280704701468888C0F308007047818985
:100FE00041F0010181817047028BD2B20283028BF2
:100FF00042EA012202837047028B02F47F4202839D
:10100000028B0A430283704721B1828A42F0200298
:10101000828204E0828A4FF6DF731A408282704730
:1010200021B1828A42F01002828204E0828A4FF665
:10103000EF731A408282704721B1828A42F008021F
:10104000828204E0828A4FF6F7731A4082827047E8
:1010500021B1828942F40042828103E08289C2F395
:101060000E028281704721B1828A42F4006282823C
:1010700004E0828A4FF2FF731A4082827047828AAC
:101080004FF6FB731A408282828A0A43828270473B
:1010900021B1828A42F00202828204E0828A4FF603
:1010A000FD731A408282704702460020B1F5007F2E
:1010B00000D100BF13880B400BB1012000E00020DD
:1010C000704701F40072B2F5007F00D100BFCA433F
:1010D0000280704770B502460024002300250020DE
:1010E00040F66A16B14200D100BFC1F3421501F0CB
:1010F0001F03012606FA03F3012D02D1968933401E
:1011000006E0022D02D1168A334001E0968A334070
:101110000C12012606FA04F41688344013B10CB1FF
:10112000012000E0002070BD10B50022002340F631
:101130006A14A14200D100BF0A1201249440A3B254
:10114000DC43048010BD0000003801400044004032
:1011500000480040004C00400050004000F0C1FB3F
:101160006049087008460078012803D15EA000F0AD
:1011700047FE02E064A000F043FE00F090FD5949F4
:10118000087008460078012803D16AA000F038FEF4
:1011900002E070A000F034FE91E079A000F030FE93
:1011A00000F06FFB7EA000F02BFE00F01DFD8348D9
:1011B00000F0B9FB4B4908700846007840B1102890
:1011C00002D020280CD107E07DA000F019FE07E036
:1011D0008BA000F015FE03E091A000F011FE00BF0F
:1011E00000BF9C4800F0AFFD3E49087008460078FB
:1011F000402824D10020984908601CE09548964A70
:101200001268815C95A000F0FBFD92489249096844
:10121000405C401C8F49904A1268885408468E49A9
:101220000968405C65498C4A126888548A4800689D
:10123000401C89490860884800680428DEDB92A0C9
:1012400000F0DEFD00F0F9FC97A000F0D9FD00F001
:10125000F1FA00BF594800F045FD224908700846E0
:1012600000781028F6D07B4800F08BFB1D490870F1
:1012700008460078F0B1402820D100207649086067
:1012800013E07448744A1268815C8EA000F0B8FDC7
:10129000704871490968405C48496F4A126888542F
:1012A0006D480068401C6C4908606B480068042861
:1012B000E7DB03E08EA000F0A3FD00BF00BF6CE7FA
:1012C00000F0D1F900F086FB00F06AF98FA000F081
:1012D00097FD98A000F094FD9FA000F091FDFFF70E
:1012E0003DFF0000280000200D0A202020202020A3
:1012F0004E524631D3EB4D4355C1ACBDD3B3C9B902
:10130000A6A3A10D0A0000000D0A20204E5246316E
:10131000D3EB4D4355C1ACBDD3CAA7B0DCA3ACC71A
:10132000EBD6D8D0C2BCECB2E9BDD3CFDFA1A30DC0
:101330000A0000000D0A2020202020204E524632B4
:10134000D3EB4D4355C1ACBDD3B3C9B9A6A3A10DD1
:101350000A0000000D0A20204E524632D3EB4D43C6
:1013600055C1ACBDD3CAA7B0DCA3ACC7EBD6D8D0AF
:10137000C2BCECB2E9BDD3CFDFA1A30D0A000000CF
:101380000D0A20D6F7BBFAB6CB20BDF8C8EBD7D4F0
:10139000D3A6B4F0B7A2CBCDC4A3CABD0D0A00003A
:1013A0000D0A20B4D3BBFAB6CB20BDF8C8EBBDD331
:1013B000CAD5C4A3CABD0D0A000000002900002040
:1013C0000D0A20D6F7BBFAB6CB20C3BBBDD3CAD516
:1013D000B5BDD3A6B4F0D0C5BAC5A3ACB7A2CBCD2A
:1013E000B4CECAFDB3ACB9FDCFDEB6A8D6B5A3ACBA
:1013F000B7A2CBCDCAA7B0DCA1A3200D0A00000084
:101400000D0A20CEB4D6AAD4ADD2F2B5BCD6C2B79E
:10141000A2CBCDCAA7B0DCA1A3200D0A000000001A
:101420000D0A20D6F7BBFAB6CB20BDD3CAD5B5BDC1
:1014300020B4D3BBFAB6CB20B5C4D3A6B4F0D0C584
:10144000BAC5A3ACB7A2CBCDB3C9B9A6A3A1200D91
:101450000A0000002D000020340000200D0A20B4F6
:10146000D3BBFAB6CB20BDD3CAD5B5BD20D6F7BB0A
:10147000FAB6CB20B7A2CBCDB5C4CAFDBEDDCEAA8D
:10148000A3BA2564200D0A000D0A20B4D3BBFAB616
:10149000CB20BDF8C8EBD7D4D3A6B4F0B7A2CBCD40
:1014A000C4A3CABD0D0A00000D0A20D6F7BBFAB6C8
:1014B000CB20BDF8C8EBBDD3CAD5C4A3CABDA1A378
:1014C000200D0A000D0A20D6F7BBFAB6CB20BDD3FB
:1014D000CAD5B5BD20B4D3BBFAB6CB20B7A2CBCD0D
:1014E000B5C4CAFDBEDDCEAAA3BA2564200D0A008C
:1014F0000D0A20D6F7BBFAB6CB20BDD3CAD5B3F6BA
:10150000B4EDA1A32020200D0A0000000D0A20D573
:10151000E2CAC7D2BBB8F6204E524632344C303104
:1015200020CEDECFDFB4ABCAE4CAB5D1E9200D0AC4
:10153000000000000D0A20D5E2CAC7CEDECFDFB41E
:10154000ABCAE420D6F7BBFAB6CB20B5C4B7B4C05B
:10155000A1D0C5CFA20D0A000D0A202020D5FDD4B0
:10156000DABCECB2E24E5246D3EB4D4355CAC7B794
:10157000F1D5FDB3A3C1ACBDD3A1A3A1A3A1A30D7C
:101580000A000000704700BFFEE700BFFEE700BF93
:10159000FEE700BFFEE770477047704770470000E6
:1015A00000B585B0012144F20400FFF7E9F94FF4DA
:1015B0000070ADF8100018208DF8130003208DF88E
:1015C000120004A92148FEF71FFF4FF48060ADF818
:1015D000100004208DF8130004A91C48FEF714FF26
:1015E0004FF4E13000900020ADF80400ADF80600A3
:1015F000ADF80800ADF80C000C20ADF80A00694603
:101600001348FFF7EAFB01211148FFF772FC05B010
:1016100000BD70B504460D46E1B20D48FFF7D6FC9B
:1016200000BF40210A48FFF73FFD0028F9D02046BF
:1016300070BD10B5044600BF20210548FFF734FDFA
:101640000028F9D00248FFF7C5FC10BD0008014092
:101650000038014001B502E00098401E009000985B
:101660000028F9D108BD00B587B001214FF48A7078
:10167000FFF786F901210803FFF782F9E020ADF8B2
:10168000040001208DF8060018208DF8070001A93C
:10169000FE48FEF7B9FE6020ADF8040001208DF889
:1016A000060010208DF8070001A9F948FEF7ACFEEE
:1016B0001020ADF8040001208DF8060048208DF8B8
:1016C000070001A9F248FEF79FFE4021F048FEF70F
:1016D00048FF0020ADF808004FF48270ADF80A0012
:1016E0000020ADF80C00ADF80E00ADF810004FF47E
:1016F0000070ADF812001020ADF814000020ADF815
:1017000016000720ADF8180002A9E248FFF7C2F959
:101710000121E048FFF763FA07B000BD10B50446A9
:1017200000BF0221DB48FFF7DEFA0028F9D021468E
:10173000D848FFF785FA00BF0121D648FFF7D3FA52
:101740000028F9D0D348FFF77DFAC0B210BD70B5BC
:1017500005460C462021CE48FEF705FF4021CC4827
:10176000FEF701FF2846FFF7D9FF06462046FFF7A0
:10177000D5FF4021C648FEF7F4FE304670BD70B577
:1017800004462021C248FEF7EEFE4021C048FEF785
:10179000EAFE2046FFF7C2FFFF20FFF7BFFF054626
:1017A0004021BB48FEF7DDFE284670BD2DE9F04123
:1017B00007460D4616462021B548FEF7D4FE4021C7
:1017C000B348FEF7D0FE3846FFF7A8FF8046002456
:1017D00005E0FF20FFF7A2FF2855601CC4B2B44209
:1017E000F7DB4021AA48FEF7BCFE4046BDE8F08189
:1017F0002DE9F04107460C4615462021A448FEF786
:10180000B2FE4021A248FEF7AEFE3846FFF786FF43
:101810008046002605E014F8010BFFF77FFF701CDF
:10182000C6B2AE42F7DB40219948FEF79AFE404629
:10183000BDE8F08110B520219548FEF794FE052201
:1018400095492A20FFF7D4FF01212120FFF77FFFD0
:1018500001212220FFF77BFF28212520FFF777FFBA
:1018600004213120FFF773FF0F212620FFF76FFFC0
:101870000F212020FFF76BFF20218548FEF771FE26
:1018800010BD10B520218248FEF76DFE0522834968
:101890003020FFF7ADFF05227F492A20FFF7A8FF80
:1018A00001212120FFF753FF01212220FFF74FFFE5
:1018B0001A212420FFF74BFF28212520FFF747FF9F
:1018C0000F212620FFF743FF0E212020FFF73FFFC7
:1018D00020216F48FEF745FE4FF6FF70FFF7BAFE76
:1018E00010BD1FB56EA103C9CDE90201052202A9F1
:1018F0003020FFF77DFF052269461020FFF756FFD5
:10190000002406E01DF80400C22800D003E0601C9B
:10191000C4B2052CF6DB00BF052C02D1012004B0B7
:1019200010BD0020FBE770B5054620215848FEF7A2
:101930001AFE04222946A020FFF75AFF202154480E
:10194000FEF70FFE00BF10215148FEF7F0FD002802
:10195000F9D10720FFF713FF044621462720FFF7A0
:10196000F6FEFF21E120FFF7F2FE04F0100008B1BF
:10197000102070BD04F0200008B12020F9E70020FD
:10198000F7E770B5054620214148FEF7EAFD00BFA4
:1019900010213F48FEF7CBFD0028F9D120213C481B
:1019A000FEF7E1FD0720FFF7EAFE04462146272067
:1019B000FFF7CDFE04F0400050B10422294661201B
:1019C000FFF7F4FEFF21E220FFF7C1FE402070BDCB
:1019D0000020FCE700B587B001210820FEF7D0FF0A
:1019E00001218803FEF7D9FF4FF46040ADF80400F1
:1019F00001208DF8060018208DF8070001A92A485B
:101A0000FEF702FD4FF48850ADF8040001208DF878
:101A1000060010208DF8070001A92348FEF7F4FC0A
:101A20004FF40070ADF8040001208DF80600482046
:101A30008DF8070001A91C48FEF7E6FC4FF4807101
:101A40001948FEF78EFD0020ADF808004FF48270B3
:101A5000ADF80A000020ADF80C00ADF80E00ADF8AE
:101A600010004FF40070ADF812001020ADF8140013
:101A70000020ADF816000720ADF8180002A90B48A9
:101A8000FFF708F80121094812E0000000080140B2
:101A900000100140003001404500002040000020BF
:101AA000C2C2C2C2C2000000000C014000380040A7
:101AB000FFF795F807B000BD10B5044600BF02213E
:101AC000B748FFF710F90028F9D02146B448FFF7CE
:101AD000B7F800BF0121B248FFF705F90028F9D097
:101AE000AF48FFF7AFF8C0B210BD70B505460C4661
:101AF0004FF48051AB48FEF736FD4FF48071A94892
:101B0000FEF731FD2846FFF7D7FF06462046FFF7D0
:101B1000D3FF4FF48071A348FEF723FD304670BD1C
:101B200070B504464FF480519E48FEF71CFD4FF4FB
:101B300080719C48FEF717FD2046FFF7BDFFFF2090
:101B4000FFF7BAFF05464FF480719648FEF709FD8E
:101B5000284670BD2DE9F04107460D4616464FF464
:101B600080519048FEF7FFFC4FF480718D48FEF7DE
:101B7000FAFC3846FFF7A0FF8046002405E0FF206E
:101B8000FFF79AFF2855601CC4B2B442F7DB4FF44C
:101B900080718448FEF7E5FC4046BDE8F0812DE900
:101BA000F04107460C4615464FF480517D48FEF73C
:101BB000DAFC4FF480717B48FEF7D5FC3846FFF71E
:101BC0007BFF8046002605E014F8010BFFF774FF49
:101BD000701CC6B2AE42F7DB4FF480717148FEF75D
:101BE000C0FC4046BDE8F08110B54FF480516D480F
:101BF000FEF7B9FC05226C492A20FFF7D0FF01212E
:101C00002120FFF772FF01212220FFF76EFF28211C
:101C10002520FFF76AFF04213120FFF766FF0F211F
:101C20002620FFF762FF0F212020FFF75EFF4FF411
:101C300080515C48FEF795FC10BD10B54FF4805103
:101C40005848FEF790FC052258493020FFF7A7FFBF
:101C5000052255492A20FFF7A2FF01212120FFF785
:101C600044FF01212220FFF740FF1A212420FFF723
:101C70003CFF28212520FFF738FF0F212620FFF702
:101C800034FF0E212020FFF730FF4FF480514548EC
:101C9000FEF767FC4FF6FF70FFF7DCFC10BD1FB5C9
:101CA000AFF2042103C9CDE90201052202A93020C7
:101CB000FFF775FF052269461020FFF74BFF002450
:101CC00006E01DF80400C22800D003E0601CC4B286
:101CD000052CF6DB00BF052C02D1012004B010BD9D
:101CE0000020FBE770B505464FF480512D48FEF704
:101CF0003AFC04222946A020FFF751FF4FF48051FF
:101D00002848FEF72EFC00BF4FF400712548FEF76F
:101D10000EFC0028F8D10720FFF702FF04462146F9
:101D20002720FFF7E2FEFF21E120FFF7DEFE04F0AF
:101D3000100008B1102070BD04F0200008B1202070
:101D4000F9E70020F7E770B505464FF480511548D4
:101D5000FEF707FC00BF4FF400711248FEF7E7FBE7
:101D60000028F8D14FF480510E48FEF7FCFB072005
:101D7000FFF7D6FE044621462720FFF7B6FE04F003
:101D8000400050B1042229466120FFF7E3FEFF2105
:101D9000E220FFF7AAFE402070BD0020FCE7000013
:101DA00000380040000C01404500002040000020A9
:101DB00030B50B46014600202022012409E021FA1B
:101DC00002F59D4205D303FA02F5491B04FA02F518
:101DD0002844151EA2F10102F1DC30BD064C074D6E
:101DE00006E0E06840F0010394E8070098471034EB
:101DF000AC42F6D3FEF7A0F9941F0008B41F000808
:101E00000FB4054B10B503A9044A029800F018F866
:101E100010BC5DF814FB0000131600084C000020F5
:101E200002E008C8121F08C1002AFAD170477047A3
:101E3000002001E001C1121F002AFBD17047000001
:101E40002DE9FF4F89B09B460446002506E0252872
:101E50000BD05A460B999047641C6D1C20780028C3
:101E6000F5D10DB02846BDE8F08F0027B846012215
:101E7000474900E0074314F8013F203B02FA03F012
:101E80000842F7D120782E2819D114F8010F47F015
:101E900004072A280ED06FF02F022078A0F130011D
:101EA00009290CD808EB880102EB410100EB01087D
:101EB000641CF2E70A98641C50F8048B0A9020789E
:101EC0000028CED0642808D0692806D075281ED0F6
:101ED0005A460B9990476D1C58E00A994FF00A0931
:101EE00001C90A91002802DA40422D2102E0390599
:101EF00004D52B218DF82010012103E0F90704D02F
:101F00002021F7E78A4608AE0DE00021FAE70A999A
:101F10004FF00A0901C90A91F7E74946FFF748FF60
:101F2000303106F8011D0028F7D1ADEB060000F1B5
:101F30002009780701D44FF00108C84502DDA8EB5D
:101F4000090000E000208046002706E008A85A4665
:101F5000C05D0B9990476D1C7F1C5745F6DB04E074
:101F600030205A460B9990476D1CB8F10001A8F13A
:101F70000108F5DC05E016F8010B5A460B9990476D
:101F80006D1CB9F10001A9F10109F4DC641C65E7DD
:101F900009280100B41F00080000002050000000C4
:101FA000201E00080420000850000020000400004B
:101FB000301E000800A24A040000000000000000DB
:101FC00001020304060708090000000001020304DF
:101FD00001020304060708090204060800000102C2
:101FE00003000000000000000000000000000000EE
:101FF00000000000344310100134431010010000B1
:0420000000000000DC
:0400000508000131BD
:00000001FF
